:020000040800F2
:10000000981E0020C9010008FB2300087322000885
:10001000F9230008350400082F4200080000000002
:10002000000000000000000000000000A5270008FC
:100030007B05000800000000A3270008F528000841
:10004000E3010008E3010008E3010008E301000800
:10005000E3010008E3010008E3010008E3010008F0
:10006000E3010008E3010008E30100083905000886
:10007000E3010008E3010008E3010008E3010008D0
:1000800045050008E3010008E3010008E30100085A
:10009000B9410008E3010008E3010008E30100089A
:1000A000E3010008E3010008E3010008E3010008A0
:1000B000E301000879290008E3010008E3010008D2
:1000C000E3010008E3010008E3010008E301000880
:1000D000E3010008E3010008E3010008E301000870
:1000E000E3010008E3010008E301000800F002F862
:1000F00000F05AF80AA090E8000C82448344AAF168
:100100000107DA4501D100F04FF8AFF2090EBAE865
:100110000F0013F0010F18BFFB1A43F0010318473B
:10012000905A0000B05A00000A444FF0000C10F83A
:10013000013B13F0070408BF10F8014B1D1108BF65
:1001400010F8015B641E05D010F8016B641E01F805
:10015000016BF9D113F0080F1EBF10F8014BAD1C55
:100160000C1B09D16D1E58BF01F801CBFAD505E073
:1001700014F8016B01F8016B6D1EF9D59142D6D3CD
:10018000704700000023002400250026103A28BFF5
:1001900078C1FBD8520728BF30C148BF0B607047F9
:1001A0001FB51FBD10B510BD00F06CF81146FFF76C
:1001B000F7FF04F081FB00F08AF803B4FFF7F2FFC9
:1001C00003BC00F08DF8000009488047094800474B
:1001D000FEE7FEE7FEE7FEE7FEE7FEE7FEE7FEE7F7
:1001E000FEE7FEE704480549054A064B7047000054
:1001F00075290008ED00000898180020981E0020BE
:10020000981A0020981A00204FF0000200B51346FB
:1002100094469646203922BFA0E80C50A0E80C5026
:10022000B1F12001BFF4F7AF090728BFA0E80C50D7
:1002300048BF0CC05DF804EB890028BF40F8042BD0
:1002400008BF704748BF20F8022B11F0804F18BF3D
:1002500000F8012B704770477047704710B500F0E9
:1002600009F8006810BD10B5044600F003F80460FA
:1002700010BD000000487047381800200048704743
:10028000381800207546FFF7F9FFAE4605006946AD
:10029000534620F00700854618B020B5FFF7A2FFAF
:1002A000BDE820404FF000064FF000074FF0000877
:1002B0004FF0000B21F00701AC46ACE8C009ACE8F8
:1002C000C009ACE8C009ACE8C0098D46704710B55C
:1002D0000446AFF300802046BDE81040FFF76DBF35
:1002E00001491820ABBEFEE726000200704700005F
:1002F00070B5044600688168C943C90717D1816891
:1003000021F00101816000F023FD05460AE000BFF5
:1003100000F01EFD401B022804D920688068C043FD
:10032000C00706D020688068C043C007F0D0002016
:1003300070BDA06A40F01000A062E06A40F00100C9
:10034000E062012070BD10B50146406A826A12F079
:10035000500F05D0006A026BBDE8104008461047F8
:10036000816A41F40071816201688968C1F3424188
:1003700007290CD1017B51B9816A21F48071816216
:10038000816AC90403D4816A41F00101816200F0ED
:1003900075F910BD10B5406A816A41F04001816273
:1003A000C16A41F00401C16200F075F910BD10B5D9
:1003B000406A00F06FF910BDF8B5002604460096BB
:1003C00000688168C943C9072DD0816841F00101E7
:1003D0008160164816490068B0FBF1F000E0401E4D
:1003E00000900028FBD100F0B3FC054616E000BFEA
:1003F00000F0AEFC401B022810D920688068C04382
:10040000C0070BD0A06A40F01000A062E06A40F084
:100410000100E06284F824600120F8BD2068806853
:10042000C043C007E4D10020F8BD00001000002048
:1004300040420F00FEE70020704700207047000098
:1004400010B500220449054802F07AFC044903482B
:1004500002F070FC002010BD400F00207C06002040
:10046000400B00202DE9F04700240E46814625462A
:10047000234F15E0387819F8041008280ED2DFE869
:1004800000F004081C1F2225282B5A2907D101201F
:1004900002E0A52902D10220387000E03D70641C02
:1004A0003068A042E6D81749174802F043FC1648C6
:1004B00002F024FC0020BDE8F08779700320EBE710
:1004C000B9700420E8E7F9700520E5E739710620E6
:1004D000E2E779710720DFE77A78B87897F803C008
:1004E00002443B79624402EB03087A79904408F0B5
:1004F000FF084145D2D143EA0C2102F055F9CDE77E
:1005000062000020400B00207C060020094A10B544
:10051000D2F8B822D2F814220AB1012010BD0A463E
:100520000146044802F00CFCBDE81040014802F00E
:1005300065BC00007C060020014800F009BA0000FC
:10054000F4050020014800F003BA0000380600203E
:1005500030B590F840500124AC40C56B6C60046825
:1005600063604368102B036803D099600068C26021
:1005700030BD9A600068C16030BD704772B6FEE75A
:10058000F8B50024009490F824202546012A12D0C2
:10059000012280F824204A681F23072A0DD206680A
:1005A000776B521E02EB820293409F430B6893408D
:1005B0001F43776319E00220F8BD06680D2A0AD2AE
:1005C000376BD21F02EB820293409F430B6893402C
:1005D0001F43376309E0F76A0D3A02EB820293404A
:1005E0009F430B6893401F43F7620A68072306681E
:1005F0000A2A0AD3F7680A3A02EB420293409F4361
:100600008B6893401F43F76008E0376902EB4202B2
:1006100093409F438B6893401F4337610A68102AB9
:1006200001D0112A20D1124B02689A4217D1936847
:100630001B0219D4936843F40003936009681029DE
:1006400012D10C490C4A0968B1FBF2F101EB8101AE
:10065000490000E0491E00910029FBD104E0816AB5
:1006600041F020018162012480F824502046F8BD29
:10067000002401401000002040420F0000680349A0
:10068000884202D1024901200870704700240140CD
:1006900000000020704770472DE9F0414FF000073F
:1006A00004003D467ED0A06A002628B9E66284F8A0
:1006B0002460204600F07EF82046FFF719FEA16A6C
:1006C000C90600D420B1A06A40F01000A06269E021
:1006D000A16A21F4885141F00201A1626268E169D6
:1006E000237B0A4347EA43010A43A1684FF480771A
:1006F000B94209D0012907D05FF0000194F814C075
:10070000BCF1010F02D00AE03946F7E7F3B1A36A62
:1007100043F02003A362E36A43F00103E36223682A
:10072000D3F804C02CF4694C4CEA010CC3F804C0A3
:1007300021688B68DFF870C003EA0C0313438B60F9
:10074000A168B9420BD0012909D00CE0DFF85CC0E8
:10075000A3690CEB43330B4343F40061DFE7218AC9
:100760000D05A5F580152168CB6A23F470032B4392
:10077000CB62216889680E4B1940914208D1E6622C
:10078000A16A21F0020141F00101A162BDE8F081FE
:10079000A06A20F0020040F01000A062E06A40F081
:1007A0000100E0620120F1E7FDF7E1FF00E0FFFF5B
:1007B000FE0E1FFF70B586B0002506460095019518
:1007C0000295039500681A4988422ED11949886913
:1007D00040F400708861886900F4007004908869B2
:1007E00040F0040088618869694600F004000490C4
:1007F0000F200090032001900F4800F0B9F9104C31
:100800000E48C4E900058020C4E902504000206180
:10081000800060612020C4E90605204600F042F90E
:1008200008B1FFF7ABFE3462666206B070BD00002F
:10083000002401400010024000080140080002406E
:10084000F40500202DE9F047894604463B4900683D
:100850003B4F0E1D9046884201D0B84207D1306808
:1008600010F4702F03D001252846BDE8F08794F8D6
:10087000240001280CD0012084F824002046FFF732
:100880009BFD05004FF0000004D084F82400EBE746
:100890000220EAE7A16A40F60162914341F48071C7
:1008A000A1622168B94218D1326812F4702F14D0B5
:1008B000A16A41F48011A1623168490505D5A16A98
:1008C00021F4005141F48051A162A16AC9040AD502
:1008D000E16A21F00601E16206E0A26A22F48012D8
:1008E000A2624968E9E7E06284F82400216A1548B9
:1008F0008862216A1448C862216A14480863216822
:100900006FF0020008602068816841F480718160A6
:10091000216843464A464C31206A00F0F1F82068CD
:100920008168C1F342410729816803D041F48011F5
:10093000816099E741F4A001FAE70000002401403A
:100940000028014047030008AF0300089503000892
:100950002DE9F05FC16B0C6801680B68D0F840C0EE
:10096000042202FA0CF2494DDFF824A1494E4A4F05
:10097000DFF828B1DFF828E122422CD05A072AD527
:100980000A68920603D40A6822F004020A60016829
:10099000A94201D1042219E0514501D1402215E0BC
:1009A000B14202D14FF4806210E0B94202D14FF45B
:1009B00080420BE0594502D14FF4802206E0714598
:1009C00002D14FF4800201E04FF080622F490839D4
:1009D0004A60C16A3BE04FF0020808FA0CF818EAD6
:1009E000040F4FF000094FF0010235D05FEA837821
:1009F00032D50B689B0605D40B6823F00A030B6005
:100A000080F821200168A94201D1022219E0514554
:100A100001D1202215E0B14202D14FF4007210E062
:100A2000B94202D14FF400520BE0594502D14FF4C4
:100A3000003206E0714502D14FF4001201E04FF0A0
:100A40000072124908394A6080F82090816A0029B2
:100A50001AD0BDE8F05F0847082505FA0CF52542D5
:100A600012D01B0710D50B6823F00E030B6090F813
:100A70004010C36B02FA01F15960826380F82120B3
:100A800080F82090016BE2E7BDE8F09F080002408B
:100A90001C00024030000240440002405800024066
:100AA0006C00024030B528B308C813491422194419
:100AB000B1FBF2F18900C1631049816302214177E2
:100AC0001A6843F6F0718A43D0E900142143D0E953
:100AD00002452C432143046921434469214384692D
:100AE00021431143196000214163012242770177BC
:100AF000084630BD012030BDF8FFFDBF00000240B8
:100B000070B5044690F82000002501280CD0012083
:100B100084F8200094F821600020012E06D084F88B
:100B200020000225284670BD022070BD022684F8F0
:100B30002160A0632068066826F001060660204652
:100B4000FFF706FDE06A00282068016802D041F046
:100B50000E0106E021F0040101602068016841F007
:100B60000A0101602068016841F001010160D9E7D4
:100B70002DE9F84FDFF8B8910024A9F1040B2346C2
:100B80000F2709F1040AABF1040EC9E00125A540C5
:100B90002A40AA427DD1674ED1F804C0ACEB0608CA
:100BA000B44532D014DCBCF1030F3AD009DCBCF1FF
:100BB000000F2AD0BCF1010F1CD0BCF1020F31D1C3
:100BC0001DE0BCF1110F17D0BCF1120F2AD119E0B2
:100BD000B8F5881F19D006DCB8F5803F15D0B8F5F8
:100BE000801F1FD111E0B8F5001F0ED0B8F5041F0B
:100BF00018D10AE0CB6815E0CB681B1D12E0CB686A
:100C000008330FE0CB680C330CE08B682BB1012B61
:100C10004FF0080303D0456104E0042302E00561BE
:100C200000E00023FF2A01D8064601E000F1040697
:100C30004FEA840501D9A5F12005D6F8008007FA0E
:100C400005FC28EA0C0803FA05F548EA0508C6F889
:100C500000804D68ED0062D5374DAE6946F0010663
:100C6000AE61AD6924F0030605F001050095334D32
:100C700006EB050CDCF80850A607360F07FA06F855
:100C800025EA0805DFF8B880404503D14FF0000899
:100C900017E044E0DFF8AC80404502D14FF0010896
:100CA0000FE0DFF8A480404502D14FF0020808E0D1
:100CB000DFF89880404502D14FF0030801E04FF083
:100CC000040808FA06F848EA0508CCF808804D68D8
:100CD000D9F80060ED024D4601D5164300E0964379
:100CE0002E604D68DAF80060AD02554601D5164316
:100CF00000E096432E604D68DBF80060AD035D4672
:100D000001D5164300E096432E604D68DEF8006082
:100D1000ED03754601D5164300E096432E60641C32
:100D20000D682A46E5407FF431AFBDE8F88F00003A
:100D300008040140000011100010024000000140B2
:100D400000080140000C0140001001400014014067
:100D50000148806870470000040000200248816854
:100D6000027811448160704704000020074810B5E4
:100D7000016841F010010160032000F075F80F20B8
:100D800000F006F800F024F8002010BD002002401A
:100D900070B50D4D04464FF47A712878B1FBF0F030
:100DA0000A490968B1FBF0F000F0D6FF48B9102CF1
:100DB00007D200222146501E00F036F800206C6059
:100DC00070BD012070BD0000040000201000002054
:100DD0000C4808B5816941F001018161816901F028
:100DE00001010091C16941F08051C161C06900F009
:100DF000805000900448416821F0E06141F00071AA
:100E0000416008BD0010024000000140002809DBDD
:100E100000F01F02012191404009800000F1E02014
:100E2000C0F8001170470000F0B40E4B1B680C4670
:100E3000C3F30223C3F10705042D00D90425191DAE
:100E4000072901D2002300E0DB1E012606FA05F186
:100E5000491E214099409E40761E16403143F0BC09
:100E600003F0FAB90CED00E0064900F0070208684B
:100E70004FF6FF03184040EA0220034A104308607F
:100E8000704700000CED00E00000FA0510B50C06FC
:100E900007D501F0070101EB810100EBC100103023
:100EA00005E001EB810100EBC10000F5A87099B2EB
:100EB00032B1012202730181190C4181002010BD61
:100EC00000220273C180F9E7704701EB810200EB59
:100ED000C202D0F8D402526A02F03FB901EB81029B
:100EE00000EBC202D0F8D402D2F8642102F098B923
:100EF00070B504460B0601F0070000EB800104EB1F
:100F0000C1014FF001024FF0000502D54A741031C3
:100F100003E081F8515101F5A871087094F890022E
:100F2000012808D084F89022206802F0D9FD84F8C6
:100F30009052002070BD022070BD70B5044601F0D3
:100F40000F002279904201D9012070BD0B0601F0FB
:100F5000070000EB800104EBC1014FF001024FF0EC
:100F6000000502D54A74103103E081F8515101F5B2
:100F7000A8718D70087094F89002012808D084F848
:100F80009022206802F049FE84F89052002070BD43
:100F9000022070BD2DE9F05F04685FEA424C0B78D7
:100FA0008D69B4F850C04FF000064BF68F7948F2C7
:100FB000800A48F68F7B48F2C00E4FF480672AD52E
:100FC0004FF0020808EBC308C44407EB4C07E45B8E
:100FD000C4F30904A54203D32D1B8D6101D00BE09E
:100FE0008E61066836F8235005EA090585F4005538
:100FF00045EA0A0526F82350520609D50D780368FC
:1010000033F8252002EA0B0242EA0E0223F82520DB
:1010100084B30A8929E04FF0060808EBC308C444EA
:1010200007EB4C07E45BC4F30904A54203D32D1B73
:101030008D6101D00BE08E61066836F8235005EA19
:10104000090585F4005545EA0A0526F8235052069D
:1010500009D40B78056835F8232002EA0B0242EA2E
:101060000E0225F823202CB14A89496900682346DD
:1010700003F0ACF82046BDE8F09F2DE9F05F05468F
:1010800000680C465FEA426C16468B692278B0F81D
:1010900050C048F68F774CF280094FF4004B4FF662
:1010A000FF7E4FF4806A4FF0000172D54FF00208C6
:1010B00008EBC208E0440AEB480C30F80C00C0F31F
:1010C0000900834211D91B1AA3610FD0730407D5FD
:1010D0002E6836F822303B4043EA090326F82230D6
:1010E00094F82420012A47D052E1A161607810B120
:1010F000012813D01AE02868B0F85030184400EBEB
:101100000210B0F80424C2F30902A0F80424B0F8D5
:10111000042442F40042A0F8042407E02868B0F850
:101120005030184400EB0210A0F8041462782868CC
:1011300012B1012A11D018E0B0F8501008442178FB
:1011400000EB0110B0F80C14C1F30901A0F80C1465
:10115000B0F80C1441F4004105E0B0F85020104400
:10116000227800EB0210A0F80C1421782846FFF733
:10117000ACFE700472D40BE1626902446261E26900
:101180000244E2612369226A9A4203D31846111A83
:1011900004E03EE084F824100AB110462162617830
:1011A00011B1012929D031E02968B1F8502011444A
:1011B000227801EB0211B1F80424C2F30902A1F86C
:1011C000042401F204413E2807D94209C30600D194
:1011D000521E0B884BEA822207E048B14208C3073F
:1011E00000D0521C0B880EEA822213430B800DE0C4
:1011F0000A8842F400420A8008E02968B1F85020C9
:101200001144227801EB0211A1F8040483B222896F
:10121000BAE04FF0060808EBC208E0440AEB480CBD
:1012200030F80C00C0F30900834211D31B1AA361EC
:101230000FD0730407D42E6836F822303B4043EABF
:10124000090326F8223094F82420012A51D09FE087
:10125000A161607818B1012814D01BE03FE0286834
:10126000B0F85030184400EB0210B0F80424C2F378
:101270000902A0F80424B0F8042442F40042A0F8C3
:10128000042407E02868B0F85030184400EB02103E
:10129000A0F804146278286812B1012A11D018E06D
:1012A000B0F850100844217800EB0110B0F80C148D
:1012B000C1F30901A0F80C14B0F80C1441F400417A
:1012C00005E0B0F850201044227800EB0210A0F89E
:1012D0000C1421782846FFF7F8FD700458D42278C2
:1012E000296831F82200384040EA090021F822003C
:1012F0004EE0626902446261E2690244E26123698C
:10130000226A9A4203D31846111A216204E00AB1F4
:101310001046216284F824106278296812B1012AEB
:1013200028D02FE0B1F850201144227801EB0211AF
:10133000B1F80C24C2F30902A1F80C2401F20C410B
:101340003E2807D94209C30600D1521E0B884BEA3A
:10135000822207E048B14208C30700D0521C0B8824
:101360000EEA822213430B800CE00A8842F400420A
:101370000A8007E0B1F850201144227801EB0211F5
:10138000A1F80C04628983B26169286802F03CFF0D
:101390002278296831F8220048F6BF73184080F09F
:1013A000300048F28003184321F822000020BDE8F5
:1013B000F09F01F0070101EB810100EBC100D0F8C3
:1013C0006C0170472DE9F04104460F0601F007005B
:1013D00000EB800104EBC1014FF001064FF0000566
:1013E00002D54E74103103E081F8515101F5A87116
:1013F000022B08700A61CB7000D10D7194F8900235
:10140000012809D084F89062206802F019FA284671
:1014100084F89052BDE8F0810220FBE710B501F09E
:10142000070404EB840100EBC101C1E95923002248
:10143000C1F86C2181F8512181F85041006801F513
:10144000A87102F03FFC002010BD70B504460D46A7
:1014500001F007002179884201D9012070BD2906D9
:101460004FF000064FF0010206D500EB800104EBBF
:10147000C1014A74103107E005EB850104EBC1019D
:1014800081F8516101F5A8718A70087094F8900292
:10149000012807D084F89022206802F0FAFB680740
:1014A00002D006E0022070BD04F52671206802F02B
:1014B000B2FB84F89062002070BD10B501F0070403
:1014C00004EB840100EBC101C1E90923012281F889
:1014D00034200B630023CB624A7401F8104F00687C
:1014E00002F0F0FB002010BD1FB50446006802F0BA
:1014F00069FE010403D5204600F080FF1FBD4105B1
:101500000DD5206830F8441F21F480610180204609
:1015100000F000F90021204600F017F91FBD41043A
:1015200005D5206830F8441F21F4804174E081041F
:1015300005D5206830F8441F21F400516CE0C10447
:1015400014D5206830F8401F21F004010180206884
:1015500030F8401F21F008010180204600F0EDF82E
:10156000206830F8441F21F4805155E0010540D532
:10157000D4F800200020694632F8203021F81030DD
:10158000401CC0B20828F7D332F8400F40F00100E9
:101590001080206830F8402F22F00102028020687D
:1015A000B0F844205205FBD530F8442F22F4806275
:1015B00002800020236831F8102023F82020401CEE
:1015C000C0B20828F6D3206830F8401F41F0080167
:1015D0000180206830F8441F21F4006101802068F8
:1015E00030F8401F41F004010180204600F0E0F88F
:1015F0001FBD810509D5206830F8441F21F4007112
:101600000180204600F09DF81FBDC005FCD5206874
:1016100030F8441F21F4807101801FBD2DE9F04195
:10162000040004D094F89102002518B107E00120CD
:10163000BDE8F08184F89052204600F04DF8032078
:1016400084F891026571206802F0DEFA94E80F00D8
:1016500002F044FA022698BB0021206802F0CCFD7B
:1016600070BB002001270BE000EB800104EBC101FF
:101670004F740874CD740D624D62401CC0B28D620F
:1016800021798142F0D8002012E000BF00EB8001F8
:1016900004EBC10181F8515181F8500181F8535197
:1016A000C1F86051C1F86451401CC0B2C1F8685122
:1016B00021798142EAD894E80F0002F09CFA10B137
:1016C00084F89162B3E7657384F89172206802F040
:1016D00090FA0020ACE7000008B500680B4988428A
:1016E00012D10B48C16941F40001C161C0690022F7
:1016F00000F40000009011461420FFF795FBBDE8B0
:1017000008401420FFF782BB08BD0000005C0040C9
:101710000010024070B5044680790125022801D0EE
:10172000FEF72CFF2946D4F8D40201F061FED4F86C
:10173000D402BDE8704001F01DBED0F8D40201F023
:1017400041BED0F8D40201F047BE10B5044690F86F
:10175000900201280AD0012084F890026173206869
:1017600002F04CFD002084F8900210BD022010BD54
:10177000D0F8D42200F52671104601F045BE10B510
:10178000044690F89002012810D0012084F89002BD
:10179000206802F008FD01212046FFF795FB206834
:1017A00002F025FA002084F8900210BD022010BD3E
:1017B00010B50446D0F8D40201F065FEA07A0028E6
:1017C00004D00348016841F00601016010BD00002B
:1017D00010ED00E02DE9F84305460078354CC007D0
:1017E00054D0E0690026C00008D4E06940F0805081
:1017F000E061E069012600F0805000902E48016809
:10180000C90512D40168804641F480710160FFF778
:101810009FFA074605E000BFFFF79AFAC01B64284D
:1018200023D8D8F80000C005F6D5206A10F440701F
:1018300021D0A98801F4407181421CD0206A1F493F
:10184000012220F440700A6000220A602062C00772
:1018500011D0FFF77DFA074641F2883808E000BF53
:10186000FFF776FAC11B414502D90320BDE8F88392
:10187000206A8007F4D5206A696820F44070084324
:1018800020621EB1E06920F08050E0612878800776
:1018900005D56068A96820F4404008436060287856
:1018A000C00605D56068E96820F4800008436060E0
:1018B0000020DBE70010024000700040400442427C
:1018C0002DE9F0470F46050061D0434E306800F027
:1018D0000700B84209D2306820F007003843306072
:1018E000306800F00700B84251D128683B4C8107AE
:1018F00012D5400703D5606840F4E0606060287846
:10190000000703D5606840F4605060606068A968B3
:1019100020F0F000084360602878C00728D068688D
:10192000012810D02168022810D0890700292EDA5A
:10193000616821F0030101436160FFF709FA804605
:1019400041F288390DE021688903EFE78901EDE76D
:10195000FFF7FEF9A0EB0801494502D90320BDE8D5
:10196000F0876068696800F00C00B0EB810FEFD180
:10197000306800F00700B8420BD9306820F007004B
:1019800038433060306800F00700B84201D00120D1
:10199000E5E72878400705D56068E96820F4E0604D
:1019A000084360602878000706D56068296920F43C
:1019B000605040EAC100606000F018F86168084AB1
:1019C000C1F30311515CC84006490860064800682D
:1019D000FFF7DEF90020C2E70020024000100240BD
:1019E0007C5A000810000020080000200E4A5168B0
:1019F0000E4801F00C03042B11D0082B0FD10C481A
:101A0000C1F38343C903C05C0AD55168084AC1F3D6
:101A10004041921E515C054A5043B0FBF1F07047C3
:101A200004494843704700000010024000127A0049
:101A30006C5A000800093D002DE9F84F040070D0F1
:101A40002078C04DC00749D06868C0F381000128E4
:101A500007D06868C0F38100022809D16868C00314
:101A600006D52868800339D560680028E7D035E0BE
:101A70006068B0F5803F0BD010B1B0F5A02F11D049
:101A8000286820F480302860286820F4802002E054
:101A9000286840F480302860606890B1FFF758F9FA
:101AA00006460AE0286840F480202860F0E700BF7E
:101AB000FFF74EF9801B642873D828688003F7D598
:101AC0000CE0FFF745F9064605E000BFFFF740F9D7
:101AD000801B6428F0D828688003F7D420789A4EB9
:101AE00080074FF001094FF0000839D5686810F001
:101AF0000C0F07D06868C0F38100022809D168681C
:101B0000C00306D42868800714D52069012808D1AD
:101B100010E02069B0B1C6F80090FFF719F9074648
:101B200005E00AE1FFF714F9C01B0228C4D82868B1
:101B30008007F7D52868616920F0F80040EAC10005
:101B400028600DE0C6F80080FFF702F9074604E0C0
:101B5000FFF7FEF8C01B022823D828688007F7D4B7
:101B6000207800072CD57948A169D9B1C0F8009038
:101B7000FFF7EEF8074604E0FFF7EAF8C01B02287B
:101B80000FD8686A8007F7D571484FF4FA5100689A
:101B9000B0FBF1F0009000BF0098411E0091FAD216
:101BA0000EE080E0C0F80080FFF7D2F8074604E0BE
:101BB000FFF7CEF8C01B022875D8686A8007F7D4F3
:101BC0002078400760D5E8690027C00008D4E8699C
:101BD00040F08050E861E869012700F080500090F3
:101BE0005C480168C90513D40168834641F48071DB
:101BF0000160FFF7ADF8824606E000BFFFF7A8F8E6
:101C0000A0EB0A0064284ED8DBF80000C005F5D52B
:101C1000E06801280AD008B1052813D0286A20F00E
:101C200001002862286A20F0040002E0286A40F0DF
:101C300001002862E06841F2883B98B1FFF788F81C
:101C400082460BE0286A40F004002862EEE700BFFD
:101C5000FFF77EF8A0EB0A0159455AD8286A800799
:101C6000F6D50CE0FFF774F8824605E0FFF770F850
:101C7000A0EB0A0159454CD8286A8007F6D41FB159
:101C8000E86920F08050E861E06988B36968C1F3D1
:101C90008101022944D00228C6F8608004D0FFF7F1
:101CA00057F8044638E034E0FFF752F8074604E0FE
:101CB000FFF74EF8C01B02282BD828688001F7D404
:101CC000206AB0F5803F05D16868A16820F4003033
:101CD00008436860D4E908010843696821F4741175
:101CE00008436860C6F86090FFF732F8044606E0E3
:101CF00025E000BFFFF72CF8001B022809D8286850
:101D00008001F7D51BE000BFFFF722F8001B022877
:101D100002D90320BDE8F88F28688001F4D40EE0D2
:101D20000128F7D06868226A00F48031914204D11A
:101D3000616A00F47010884201D00120EAE70020B7
:101D4000E8E70000001002400000424280044242E6
:101D5000100000200070004010B5401EB0F1807FE0
:101D600001D3012010BD4FF0E02460610F21601706
:101D700002F072FA0020A06107202061002010BD4F
:101D80007047704770B590F83C20012A26D0012496
:101D900080F83C40022280F83D2003685A689D6824
:101DA00022F070060A6832435A600D4B02689A426C
:101DB00008D0B2F1804F05D00A4B9A4202D00A4BAC
:101DC0009A4204D1496825F080031943916080F854
:101DD0003D40002180F83C10084670BD022070BDD7
:101DE000002C0140000400400008004090F83D1025
:101DF000012901D001207047022180F83D100068C0
:101E00000B49884208D0B0F1804F05D0094988427B
:101E100002D00949884204D1816801F007010629EE
:101E200003D0016841F0010101600020704700000B
:101E3000002C0140000400400008004090F83D10D4
:101E4000012901D001207047022180F83D1001686E
:101E5000CA6842F00102CA6000680B49884208D093
:101E6000B0F1804F05D00949884202D00849884224
:101E700004D1816801F00701062903D0016841F00F
:101E80000101016000207047002C01400004004067
:101E90000008004070472DE9F04104460068C6681C
:101EA00005694FF00007A90713D5B10711D5F91E31
:101EB000016101202077206880698007204602D0D8
:101EC000FFF7E8FF04E000F0A5F8204600F066F90F
:101ED0002777680716D5700714D521686FF00400BE
:101EE0000861022020772068806910F4407F204636
:101EF00002D0FFF7CFFF04E000F08CF8204600F09E
:101F00004DF92777280715D5300713D521686FF0CD
:101F100008000861042020772068C06980072046F7
:101F200002D0FFF7B7FF04E000F074F8204600F09D
:101F300035F92777E80616D5F00614D521686FF035
:101F400010000861082020772068C06910F4407FE5
:101F5000204602D0FFF79EFF04E000F05BF8204629
:101F600000F01CF92777E80708D0F00706D02168B1
:101F70006FF001000861204600F060F9280608D5DE
:101F8000300606D521686FF0800008612046FFF713
:101F9000F7FE680608D5700606D521686FF0400088
:101FA0000861204600F064F9A8060AD5B00608D5F5
:101FB00021686FF0200008612046BDE8F041FFF77E
:101FC000E0BEBDE8F081000000B585B000210091C1
:101FD00001910291039100680B49884211D10B488D
:101FE000816941F0040181618069694600F0040063
:101FF0000490402000900220019003900448FEF7D6
:10200000B7FD05B000BD0000000400400010024014
:1020100000080140704770B5044690F83C00002667
:102020000D4601280FD0012084F83C006AB1042A33
:102030001DD0082A2FD00C2A3FD00126002084F87A
:102040003C00304670BD022070BD206800F0E4FC0A
:102050002068816941F0080181612068816921F06F
:1020600004018161206881692A69114311E02068B7
:1020700000F0FAFC2068816941F400618161206808
:10208000816921F480618161206881692A6941EA5E
:1020900002218161D2E7206800F012FD2068C16949
:1020A00041F00801C1612068C16921F00401C161EA
:1020B0002068C1692A69114311E0206800F02CFDF5
:1020C0002068C16941F40061C1612068C16921F4DF
:1020D0008061C1612068C1692A6941EA0221C16148
:1020E000ACE710B5040003D094F83D0010B107E050
:1020F000012010BD002084F83C00204600F01EF8AE
:10210000022084F83D00211D206800F03BFC0120E6
:1021100084F8460084F83E0084F83F0084F84000CC
:1021200084F8410084F8420084F8430084F84400B5
:1021300084F8450084F83D00002010BD38B5054600
:1021400000681249884220D11148C16941F002015A
:10215000C161C069104C00F0020000900D48206081
:10216000002080216060C4E90201490021618900EA
:1021700061612021C4E906102046FEF793FC08B1F6
:10218000FEF7FCF96C62AC63656238BD0004004088
:10219000001002406C00024038060020704700002A
:1021A00010B50446022249B104290ED0082913D0E3
:1021B00094F84100012816D0012010BD94F83E008B
:1021C0000128F9D184F83E200FE094F83F0001285F
:1021D000F2D184F83F2008E094F840000128EBD1C8
:1021E00084F8402001E084F841200122206800F0BA
:1021F00005FC0F492068884203D1426C42F400423A
:1022000042642068884208D0B0F1804F05D0094967
:10221000884202D00849884204D1816801F0070150
:10222000062903D0016841F001010160002010BDC2
:10223000002C0140000400400008004000680949EB
:1022400088420ED10949084A064B4888343332F88F
:1022500010201A60401C80B24880642801D30020FE
:1022600048807047000400401C030020000000204C
:102270007047FEE7F0B500230A24302537261F46B5
:1022800011E000BFB4EB107F02D905EB107C01E038
:1022900006EB107C01F813C001EB430C00015B1C42
:1022A0008CF80170DBB29342ECD3F0BDFEB5002494
:1022B0002048009401941E490294016089158160B0
:1022C000012505730475042606614FF460214460FE
:1022D000C161FEF7E1F908B172B6FEE7CDE900454C
:1022E000694614480294FEF74BF908B172B6FEE74E
:1022F0000224CDE9005469460E48FEF741F908B1C1
:1023000072B6FEE70094032469460A480194FEF77A
:1023100037F908B172B6FEE7CDE9004669460548CF
:10232000FEF72EF9002801D072B6FEE7FEBD0000D0
:10233000002401407C05002010B58AB000240794D9
:102340001C2168460894FDF75FFF15481349C0E952
:102350000014FF21C0E9024104618461FFF7C1FE5E
:1023600008B172B6FEE7079407A90D480894FFF775
:1023700009FD08B172B6FEE76020CDE900040294C1
:102380000022694606480494FFF745FE08B172B67C
:10239000FEE70348FFF718FE0AB010BD0004004036
:1023A000AC05002010B500220F49104800F0AEFE29
:1023B00008B1FEF7E3F80E490C4801F08AF808B1BD
:1023C000FEF7DCF80B49094800F0ACFC08B1FEF759
:1023D000D5F8064801F0D2F8002803D0BDE8104037
:1023E000FEF7CCB810BD0000140000207C060020D1
:1023F0005401002068000020FEE7FEE72DE9F84FB9
:10240000044640F68F7B48F60F794FF480684FF012
:10241000000ABDE1B0F8441011F00F0539D030F8D2
:10242000256031047ED530F8251001EA0B0141F01A
:10243000800120F8251005EB850004EBC00797F814
:102440005C0107F5A87700286DD0F87802286BD0DA
:102450003978226832F8210048F68F73184048F224
:10246000C003184322F821003978206830F8212071
:10247000B0F8503052047DD5022202EBC1015A1847
:1024800008EB4201415A8905890D009173D03A89C0
:10249000DDE0C9062BD4018801EA090141F40041BD
:1024A0000180206804F11005B0F85030217C022230
:1024B00002EBC1015A1808EB4201405AC0F309006F
:1024C000E062616A0844606200212046FEF7FDFC7C
:1024D000607B00289DD0A86900289AD1607B216884
:1024E00040F08000A1F84C0084F80DA050E1018874
:1024F00004F5A8750A0521D5B0F850202B780621DF
:1025000001EBC3010A4408EB4201405A04F526716D
:10251000C0F30903EB61EA88206801F057FE2068E8
:10252000018802E0AEE06EE07EE001EA0B0141F0DE
:10253000800101802046FFF71BF929E10904D5D568
:10254000018801EA0B0141F0800101802068B0F8A8
:1025500050202B78062101EBC3010A4408EB42010D
:10256000405A83059B0DEB6110D0696971B1EA880F
:10257000206801E05FE05DE001F028FEE96968693C
:102580000844686100212046FEF7A8FC21680888FD
:102590000205ABD4C0F301300328A7D0B1F8500036
:1025A0000844B0F80C14C1F30901A0F80C142A690E
:1025B00000F20C403E2A09D95109D20600D1491E29
:1025C00002884FF4004343EA812109E0B2B1510887
:1025D000D20700D0491C02884FF6FF7303EA81211D
:1025E0000A430280216808884BF68F72104080F4FD
:1025F000405048F2800210430880C9E0018841F44D
:1026000000410180EEE72068B0F850203B780621B9
:1026100001EBC3010A4408EB4201415A8905890DC7
:10262000009118D0FA8812E0324639462046FEF76B
:10263000B1FC00900FE0062202EBC1015A1808EB32
:102640004201415A8905890D009104D07A8979693E
:10265000009B01F0BBFDF86900990844F8617969B5
:10266000009808447861B86918B1396900988142C6
:1026700004D939782046FEF731FC03E0394620685A
:1026800001F020FB30062ED505EB850004EBC001E0
:10269000206830F8252002EA090242F4004220F8BE
:1026A0002520C87C103101281ED0F0056CD420688C
:1026B000B0F850300D78022202EBC5021A4408EB44
:1026C0004202805A8A69C0F30900824255D9121A1F
:1026D0008A6154D04A6902444A61CA691044C86197
:1026E000206801F0EFFA53E0C1F818A0087B5246C9
:1026F00008B3700620D5487810B1012812D03AE00E
:102700002068B0F8502010440A7800EB0210B0F8AE
:102710000424C2F30902A0F80424B0F8042442F40B
:10272000004206E02068B0F8503018440B7800EB07
:102730000310A0F804241EE04B78206813B1012B8D
:1027400011D018E0B0F8502010440A7800EB0210C5
:10275000B0F80C24C2F30902A0F80C24B0F80C2441
:1027600042F4004205E0B0F8503018440B7800EB1A
:102770000310A0F80C24097802E0C1F818A0E9B20F
:102780002046FEF7A2FB03E032462046FEF775FC2A
:102790002068B0F8441009043FF53CAE0020BDE8C5
:1027A000F88F7047704700002DE9F84F05460C463A
:1027B000104602F067FF4FF0FF3103F018F9DFF821
:1027C00014A10090002004B9012440F6FC21B1FBC3
:1027D000F4F129B1481EB0F5803F01D34FF6FF70E8
:1027E0003D490A689062096801204861DFF8EC9071
:1027F000DFF8EC8000244FF07E5B204602F02AFFD9
:10280000384902F045FE3DB1012D18D0022D23D0EC
:10281000032D4AD0504654E0334902F047FF02F0FE
:10282000A3FD02F0C9F807460E46009802F09CFD91
:102830003A46334602F0A4FB0E46074628E0B0F1C4
:102840007C5F01DA594600E02849009802F02EFF2B
:10285000514602F0B5FD24E0012103F0C8F85946C5
:1028600002F0F0FF20F0004002F07EFD012203F0B4
:1028700090F800221E4B02F08DFC06460F46009891
:1028800002F072FD32463B4602F07AFB07460E46E6
:10289000504602F069FD3A46334602F00FF902F065
:1028A000DBF8484509DD48460BE0012103F09FF8BD
:1028B000594602F0C7FF0099C8E710F1FF4F00D357
:1028C000002002F0A7FE28F81400641C642C94DB9E
:1028D000BDE8F88F0000FF42AC05002000007F43F8
:1028E0001C0300200000C842DB0FC940000080BF6D
:1028F0000000F03FFEF732BA30B593B028216846A9
:10290000FDF782FC14210AA8FDF77EFC00240120BB
:102910000F9410941194010412948DE81300049004
:102920004FF4E010CDE90810022507956846FFF73F
:1029300083F808B172B6FEE70F20CDE90A054FF41F
:102940008060CDE90C4002210AA80E94FEF7B8FF82
:1029500008B172B6FEE712200F904FF40040CDE9A7
:1029600011040FA8FEF736FF002801D072B6FEE76B
:1029700013B030BD704700000148FFF78CBA00006B
:10298000AC050020F0B50268194B1A4C1A4D4FF0F7
:102990008047984205D0B84203D0A04201D0A84257
:1029A00003D122F070064A683243984205D0B842FB
:1029B00003D0A04201D0A84203D122F44074CA68D7
:1029C00022434C6922F08002224302608A68C2627C
:1029D0000A688262984201D109690163012141615B
:1029E0000169C90703D0016921F001010161F0BD4E
:1029F000002C0140000400400008004010B501F028
:102A00001F030121046A99408C430462016A9A40C1
:102A10001143016210BD000030B5036A026A22F062
:102A2000010202624268846924F073050C682C4339
:102A300023F002058B682B430A4DA8420BD123F0EB
:102A40000805CB6822F440722B434D6923F0040340
:102A500015438A692A43426084614968416303627D
:102A600030BD0000002C014030B5026A036A23F03B
:102A700010030362436884690D6824F4E64444EA61
:102A800005248D6822F0200242EA05120B4DA8426F
:102A90000ED1CD6822F0800242EA05124D6923F47E
:102AA000406343EA85038D6922F0400243EA8503CF
:102AB0004360846149688163026230BD002C01403B
:102AC00030B5036A026A22F4807202624268C46905
:102AD00023F4007324F073050C682C438D6843EADB
:102AE00005230C4DA8420ED1CD6823F4006343EAC0
:102AF00005234D6922F4405242EA05128D6923F400
:102B0000806342EA05124260C4614968C16303629E
:102B100030BD0000002C014030B5046A026A22F486
:102B2000805202624268C3690D6823F4E64343EAB7
:102B300005238D6824F4005444EA0534064DA84268
:102B400004D14D6922F4804242EA85124260C36199
:102B500049680164046230BD002C01402DE9F04158
:102B6000D0F8C032D0F8B822CAB101EB810500EB31
:102B700085040026E7693FB103EBC5031B6AB7FB79
:102B8000F3F503FB157323B1C2F814620020BDE80E
:102B9000F08100231A46E66100F07EFCF6E7022091
:102BA000F5E770B50546D0F8B84200F07AFBC4F8F6
:102BB0000C02D5F8B80248B1D5F8BC12D4F804021A
:102BC000CA6804F503719047002070BD022070BDF3
:102BD00070B504460026812100F0B6FA00250121D7
:102BE0002046E56200F0B0FA82212046C4F86C511C
:102BF00000F0AAFA2564D4F8B80248B1D4F8BC02AF
:102C000004F52E7440688047206800F014FE2560AB
:102C1000304670BD10B5D0E9AE4159B194F800020C
:102C2000FF2807D08B6894F8012221469847FF209F
:102C300084F80002002010BD0A210180004870477E
:102C40007C0000204321018000487047CC00002018
:102C50004321018000487047880000204321018003
:102C600000487047100100202DE9F041044600267D
:102C7000007C4FF40077012590B34023022281218C
:102C8000204600F062FB4023E5620222012120463B
:102C900000F05BFB0823032282212046C4F86C511C
:102CA00000F053FB4FF40770256400F0C5FDC4F835
:102CB000B802F8B10546D4F8BC020068804700208D
:102CC000C5F81402C5F81802207CD5F8042298B182
:102CD00040230121204600F044FB3046BDE8F0814E
:102CE000FFE73B4602228121204600F02EFB3B46B7
:102CF000E562CAE70126F0E73B46EAE710B5D0F8FF
:102D0000B81269B1027C002AD1F8042205D0402310
:102D1000012100F026FB002010BD4FF40073F7E7FF
:102D2000022010BD02460220002902D00020C2F875
:102D3000BC127047D0F8B802C0F8041200207047E7
:102D4000D0F8B802C0F81022C0F80812002070476E
:102D50002DE9FC410546D0F8B87200208DF800003E
:102D6000ADF80400064608780C4610F0600121D04A
:102D700020293BD1E288AAB10006607807D5D5F8B2
:102D8000BC128B6839469847E288394626E087F8B6
:102D90000002A07987F80102E2883946284600F04F
:102DA0006AF828E0D5F8BC12607800228B682146CA
:102DB000984720E0607820B10A2809D00B2815D167
:102DC00010E095F89C02032810D1022201A905E029
:102DD00095F89C02032809D101226946284600F093
:102DE00064F808E095F89C02032804D021462846A0
:102DF00000F036F802263046BDE8FC8110B5D0F868
:102E0000B812A1B1D1F814220AB1012010BD0122DB
:102E1000C1F81422D1F810220263B1F8102293B243
:102E2000D1F80822812100F037FB002010BD0220DC
:102E300010BD10B5D0F8B42252689047002010BDE4
:102E4000134610B50A46002100F08BFA002010BD91
:102E5000134610B50A46002100F01EFB002010BDED
:102E600010B50446802100F0FCFA2046BDE8104071
:102E7000002100F0F6BA10B50323C0F85C21C0F8B9
:102E80009432C0F8602113460A46002100F069FA26
:102E9000002010BD10B505210023C0F894121A4679
:102EA000194600F05EFA002010BD10B50223C26181
:102EB000C0F89432026213460A46002100F0ECFA90
:102EC000002010BD10B504210023C0F894121A464A
:102ED000194600F0E1FA002010BD000010B50A46C6
:102EE000024903A000F0E2F8004810BD40090020AC
:102EF00043444320436F6E666967000012200880D8
:102F0000004870473400002010B50A46024903A06B
:102F100000F0CCF8004810BD400900204344432095
:102F2000496E746572666163650000000420088064
:102F3000004870473000002010B50A46024903A03F
:102F400000F0B4F8004810BD4009002053544D690A
:102F500063726F656C656374726F6E696373000092
:102F600010B50A46024903A000F0A0F8004810BDC1
:102F70004009002053544D333220566972747561F4
:102F80006C20436F6D506F727400000010B51A20F2
:102F900008800A480168001D0468001D00680818C0
:102FA00009D008220649FFF765F9054904221031C6
:102FB0002046FFF75FF90248801E10BDE8F7FF1FAB
:102FC0004A000020F8B504460020ADF8000048880B
:102FD0000D46010A082948D2DFE801F04704091725
:102FE00047473C45D4F8B012207C0A6819E0207CA1
:102FF00002260028D4F8B40205D0C16A6846884782
:10300000014646703EE0816AF8E7C0B206282CD23D
:10301000DFE800F0030A1014181CD4F8B00242686C
:1030200005E0694690471CE0D4F8B0028268E2B13E
:10303000207CF6E7D4F8B002C268F8E7D4F8B00212
:103040000269F4E7D4F8B0024269F0E7D4F8B002BC
:103050008269ECE7207C40B9D4F8B402416B684641
:10306000884701460EE0207C20B129462046FFF724
:10307000F7FEF8BDD4F8B402016B684688470146F4
:1030800007204870BDF8000048B1EA8852B182427A
:1030900000D90246ADF800202046FFF706FFE88879
:1030A0000028E6D12046FFF70DFFF8BD70B50023DC
:1030B00000281ED00446002502E06D1CEDB2641C01
:1030C0002678002EF9D1022404EB450414801278EE
:1030D000CA545B1C0322CA5400245B1C06E0CA5479
:1030E0005B1CDAB28C54521CD3B2401C0278002A0A
:1030F000F5D170BD01004FF0000004D0012901D0CE
:10310000022901D0022070470120704710B580B11C
:10311000D0F8B43213B10023C0F8B43209B1C0F80A
:10312000B012012180F89C12027000F0BFF800205C
:1031300010BD022010BD10B5D0F8C002FDF7FDFE95
:10314000BDE81040FFF7D6BF10B5D0F8C002FDF7BC
:10315000CFFEBDE81040FFF7CDBF2DE9F041174687
:10316000044651B1D4F8B40242691AB194F89C02F1
:10317000032851D00220BDE8F081D4F89432002514
:1031800004F11400022B03D0042B3AD0C3B33CE06B
:10319000D0E903639E4207D9F11AC1608AB2394669
:1031A0002046FFF755FE12E08068B0FBF3F103FB09
:1031B000110199B9984211D3D4F8981288420DD2CE
:1031C000002211462046FFF743FEC4F89852002320
:1031D0001A461946204600F0C4F816E0D4F8B402A6
:1031E000C16829B194F89C02032801D12046884780
:1031F0008021204600F035F92046FFF74BFE04E021
:10320000FFE78021204600F02CF994F8A002012865
:1032100004D184F8A05201E0204690470020AAE79C
:1032200070B51546044649B1D4F8B40282691AB1A2
:1032300094F89C02032830D0022070BDD4F8941278
:1032400004F5AA70032902D005291ED027E0D0E991
:1032500003218A420BD9531AC3600846834200D324
:1032600003469AB229462046FFF7EAFD17E0D4F854
:10327000B402016929B194F89C02032801D12046C7
:1032800088472046FFF71EFE09E000200146C4F8EB
:103290009402204600F0E5F801E020469047002027
:1032A00070BDD0F8C002FEF784B8000010B5044627
:1032B0001C481D49C0F8D442C4F8C002016008216E
:1032C00001710221817100218172C1720173FEF7C7
:1032D000A5F908B1FDF752F90022D4F8C00218236D
:1032E000114604F53074FDF7D1FD582300228021EA
:1032F0002068FDF7CBFDC023002281212068FDF767
:10330000C5FD4FF48873002201212068FDF7BEFD42
:103310004FF48073002282212068FDF7B7FD002062
:1033200010BD000060150020005C00400A0601F09E
:103330007F01D0F8C00201EB810100EBC10001D593
:10334000807C704790F85201704710B51C461346B8
:10335000D0F8C0022246FEF735F8BDE81040FFF76E
:10336000C9BE10B5D0F8C002FEF758F8BDE810404D
:10337000FFF7C0BE70B50022044640231146FFF798
:10338000E4FF40260125C4F8646133460022802111
:103390002046C4F85851FFF7D8FF6662A56184F84B
:1033A0009C520020C4F894026060C4F8A402D4F8CF
:1033B000B80228B1D4F8B4020021426820469047F0
:1033C000002070BD90F89C12042903D190F89D1242
:1033D00080F89C120020704710B590F89C120329C9
:1033E00004D1D0F8B412C96901B18847002010BDDA
:1033F00001740020704710B5D0F8C002FEF7A5F99F
:10340000BDE81040FFF776BE70B5044600F52A709F
:10341000054600F04AF80120C4F89402B4F8AE0260
:10342000C4F8980294F8A80210F01F010AD00129EC
:103430000DD0022910D000F08001204600F011F8D4
:10344000002070BD2946204600F09DF8F8E7294687
:10345000204600F0C9F9F3E72946204600F01CF9A0
:10346000EEE710B5D0F8C002FDF7EFFFBDE8104061
:10347000FFF740BE10B5D0F8C002FEF780F9BDE8F6
:103480001040FFF737BE90F89C1280F89D1204217F
:1034900080F89C120020704710B5D0F8C002FEF7EB
:1034A0000CF8BDE81040FFF725BE0A7802704A7894
:1034B00042708A78CB7802EB032242800A794B79FA
:1034C00002EB032282808A79C97902EB0121C18053
:1034D00070470246002011B1C2F8B41270470220B2
:1034E000704710B5D0F8B42202241AB11268904780
:1034F00000B90024204610BD70B50E461E4D8978D7
:1035000004462970012931D894F89C0202280BD076
:1035100003280FD031462046FFF7A2FC2978204629
:10352000BDE87040FFF785BCD9B10320616084F825
:103530009C0209E071B16068884212D0C1B2204695
:10354000FFF777FC297861602046FFF7CAFF022861
:103550000CD006E0022084F89C0220466160FFF750
:1035600068FC2046BDE87040FFF7ACBC3146204601
:10357000BDE87040FFF774BC7800002010B5FFF77D
:1035800079FF002010BD2DE9F0410A78002612F0E5
:10359000600208D0202A01D0402A70D1D0F8B4228D
:1035A000926890476DE04B78002201250A2B66D285
:1035B000DFE803F0405D6557650805652C29FFF7D6
:1035C00001FD5EE004468888D8B9C888C8B9488833
:1035D000802816D200F07F0794F89C02032810D0B0
:1035E00084F89E7239462046FFF705FF2046FFF714
:1035F00069FC1FB1022084F89C0242E084F89C52CE
:103600003FE020463BE0FFF777FF3AE0CB88012B15
:1036100035D190F89C32012B04D0022B02D0032B21
:103620002DD104E08260012200F1080116E00122A0
:10363000011D13E090F89C22012A03D0022A01D038
:10364000032A1CD1CA88022A19D1C560D0F8A41255
:1036500009B10321C160022200F10C01FFF725FC32
:103660000FE0498801290CD1C0F8A45211E090F86C
:103670009C32012B08D0022B06D0032B04D0FFF77D
:10368000EFFB3046BDE8F08149880129F9D1C0F847
:10369000A422FFF717FCF4E72DE9F0410A4604469F
:1036A00010780027097910F060030AD0202B01D090
:1036B000402B50D1D4F8B402114683682046984775
:1036C0008FE0C0F34110012806D05078D0B3012814
:1036D0002AD003283FD107E0D4F8B402114683680A
:1036E0002046BDE8F041184794F89C02022802D019
:1036F000032872D10AE071B380296ED02046FFF70B
:10370000B0FE80212046FFF7ACFE6AE0508838B951
:1037100031B1802904D0D08810B92046FFF7A1FE2E
:103720002046FFF7CFFB5CE094F89C020228E2D031
:10373000032852D1508898BB4806F1D02046FFF7A5
:10374000FAFCEDE7FFE794F89C020026022803D07C
:10375000032842D112E040E009B180293DD108069A
:1037600001F07F0000EB800004EB800101D51431F3
:1037700001E001F5AA7102220E602AE0080601F0BC
:103780000F0000EB800004EB80000AD5806920B3B5
:1037900001F07F0000EB800004EB800514350BE0A6
:1037A0001FE0D0F85801C0B101F07F0000EB8000AD
:1037B00004EB800505F5AA7541B1802906D02046A5
:1037C000FFF7B4FD10B10120286000E02E60022256
:1037D00029462046FFF769FB03E011462046FFF724
:1037E0003FFB3846BDE8F08170B5054608780C46C9
:1037F00010F0600003D0202801D0402816D195F8A1
:103800009C02012803D0022801D003280ED1207980
:1038100001280BD8D5F8B402826828469047E18881
:10382000014306D12846FFF74DFB02E02846FFF78B
:1038300017FB002070BD7047004870474013002000
:103840002DE9F0470C78002630F8243048F68F1226
:103850001340CA78002A78D0012A7CD0022A02D0EC
:10386000032A75D0012648F28002134320F8243041
:103870000D7830F8253048F68F7423402B431343DE
:1038800020F825300D7B48F2C00948F6BF734CF292
:10389000800A4BF68F77EDB3CD7891F800C0022DFA
:1038A00030F82C507DD048F68F6805EA080515439E
:1038B00020F82C50B0F8505091F800C0054405EBAA
:1038C0000C15B1F808C02CF0010CA5F800C4B0F834
:1038D000505091F800C0054405EB0C15B1F80AC032
:1038E0002CF0010CA5F808C44D78002D7ED00D7881
:1038F00030F825C05FEA4C4C07D530F825C00CEAFB
:10390000040C4CEA0A0C20F825C091F800C030F8ED
:103910002C5000E022E06D0606D530F82C502540F2
:1039200045EA090520F82C50CC780D78012C30F8A8
:10393000254004EA03047CD084F02003134320F8DC
:103940002530C1E001E006E002E043F400738AE7BD
:1039500043F4C06387E743F4806384E74D784DB355
:10396000B0F850500F78054405EB0715CF8827F0C5
:103970000107A5F800740F7830F827506D0606D5BA
:1039800030F82750254045EA090520F82750CC7823
:10399000012C07D00C7830F82410194081F0200158
:1039A00004E064E00C7830F824101940114320F84A
:1039B000241090E0B0F850300D78034403EB051369
:1039C000CD8825F00105A3F80854B0F850300D78E3
:1039D000034403EB0513B3F80C54C5F30905A3F82E
:1039E0000C540D6903F20C433E2D00E045E00BD969
:1039F0004FEA551CED0601D1ACF1010C1D884FF4C6
:103A0000004848EA8C2C0BE035B34FEA550CED0723
:103A100001D00CF1010C1D884FF6FF7808EA8C2CC0
:103A200045EA0C051D800D7830F825305B0408D57B
:103A300000E046E030F82530234043EA0A0320F84E
:103A40002530097861B130F821303B4083F40053D0
:103A5000134320F821303EE01D8845F40045E1E79E
:103A60000188394081F440511143018033E0254001
:103A700048F2801845EA08051AE791F800C030F8C6
:103A80002C506D0406D530F82C50254045EA0A0527
:103A900020F82C5091F800C030F82C506D0606D557
:103AA00030F82C50254045EA090520F82C500D78B7
:103AB00030F825403C4084F44054144320F825401D
:103AC00070E7144320F825400B7830F82310394074
:103AD000114320F823103046BDE8F08700207047DE
:103AE0002DE9F04391F80C804F780A7848F6BF7CB6
:103AF0004BF68F7948F2800348F2C0054CF28006FD
:103B000048F68F74B8F1000F28D0002F30F82270DB
:103B10004FEA474748D0002F05DA30F82270274097
:103B2000374320F822700A7830F822707F0605D5D6
:103B300030F8227027402F4320F822700D7830F89B
:103B400025202240324320F825200C7830F824200C
:103B500002EA0C021A4320F824201AE07FB130F860
:103B60002260760605D530F8226026402E4320F8E4
:103B700022600A7830F8221001EA0C010EE030F8D9
:103B800022506D0405D530F822502540354320F8E9
:103B900022500A7830F8221001EA0901194320F86E
:103BA00022100020BDE8F083002F05DA30F82270E3
:103BB0002740374320F822700A7830F822607606D2
:103BC00005D530F8226026402E4320F822600E787A
:103BD00030F8262022402A4320F826200C7830F89E
:103BE000242002EA09021A4320F82420C1E7002019
:103BF000704700207047012120F8401F00210180FC
:103C0000818001820846704730F8401F21F43F410F
:103C10000180002070470020704730B50A7BB2BB9E
:103C20004A7848F68F7548F28004C2B10B7830F8B4
:103C30002320520607D530F823202A4048F2C00539
:103C40002A4320F82320CA78012A20D00A7830F8A5
:103C5000221048F6BF73194081F0200114E00A7861
:103C600030F822305B0407D530F822302B404CF27C
:103C700080052B4320F822300A7830F822104BF6CA
:103C80008F73194081F44051214320F82210002005
:103C900030BD10B54A780978002A48F2800330F820
:103CA000212005D048F6BF74224082F0100204E0C3
:103CB0004BF68F74224082F480521A4320F8212060
:103CC000002010BD2DE9F0470D464B78097B0446D6
:103CD0004FF0000948F68F7248F2800A4FF400470F
:103CE0004FF6FF78012B09D000296FD0E878022821
:103CF0006DD001286CD00120BDE8F087AE6928693D
:103D0000864200D9064691B1E97802291ED0286A78
:103D1000801B2862287834F820104906B4F8501027
:103D2000214401EB001073D5A0F80C6416E1B3B286
:103D3000EA882046696900F067FAB4F850002978EB
:103D4000204400EB0110A0F804640DE1296A8142CF
:103D500077D9297834F82100104048F280121043B6
:103D600024F82100286A801B2862287834F8201063
:103D70004906697871D511B101292AD030E0B4F82B
:103D80005010214401EB0010B0F80C14C1F30901EC
:103D9000A0F80C1400F20C403E2E07D97109F2066F
:103DA00000D1491E028847EA812107E04EB171081F
:103DB000F20700D0491C028808EA81210A430280E8
:103DC0000EE0018841F40041018009E0F1E020E1CA
:103DD00095E1B4F85020111901EB0010A0F80C6423
:103DE0006A89B3B22046696900F00EFA6869304406
:103DF00068612969286A884202D9801B286202E02A
:103E00000646C5F82090687818B101282BD032E01A
:103E10002FE0B4F850002978204400EB0110B0F8EE
:103E20000414C1F30901A0F8041400F204403E2E6A
:103E300008D97109F20600D1491E028847EA81219A
:103E400008E0A1E056B17108F20700D0491C0288D1
:103E500008EA81210A4302800DE00EE0018841F466
:103E60000041018007E0B4F850002978204400EBBD
:103E70000110A0F804642A8971E011B1012927D04A
:103E80002DE0B4F85010214401EB0010B0F80414F8
:103E9000C1F30901A0F8041400F204403E2E07D932
:103EA0007109F20600D1491E028847EA812107E024
:103EB0004EB17108F20700D0491C028808EA81213E
:103EC0000A4302800BE0018841F40041018006E0D2
:103ED000B4F85010214401EB0010A0F804642A89C2
:103EE000B3B22046696900F08FF9686930446861AF
:103EF0002969286A884202D9801B286202E00646A6
:103F0000C5F82090687810B1012836D026E0B4F8C2
:103F100050002978204400EB0110B0F80C14C1F3D4
:103F20000901A0F80C1400F20C403E2E07D97109CB
:103F3000F20600D1491E028847EA812107E04EB10E
:103F40007108F20700D0491C028808EA81210A435F
:103F5000028003E0018841F4004101806A89B3B224
:103F60002046696900F050F9297834F8210048F6B4
:103F7000BF72104080F030000FE1B4F85010081903
:103F8000297800EB0110CFE62A7834F8220048F6B1
:103F90008F63184040EA0A0024F82200B4F8500069
:103FA0002A78204400EB02108BB2A0F804342A894E
:103FB000D6E7A9692869814202D9091AA96102E0F4
:103FC0000846C5F81890B4F850102A78214401EB3F
:103FD0000211B1F80C24C2F30902A1F80C2401F279
:103FE0000C413E287DD94209C00600D1521E0888E6
:103FF00047EA82220AE0088840F4004007E04208CD
:10400000C00700D0521C088808EA822210430880AA
:10401000BBE033BBB4F850002978204400EB01101A
:10402000B0F80414C1F30901A0F80414296900F2DE
:1040300004403E2907D94B09C90600D15B1E0188FF
:1040400047EA832307E041B14B08C90700D05B1C56
:10405000018808EA8323194302E0018841F4004102
:104060000180687810B1012828D030E0B4F8500001
:104070002978204400EB0110B0F80C14C1F30901B9
:10408000A0F80C14296900F20C403E2907D94B090D
:10409000C90600D15B1E018847EA832307E041B1CE
:1040A0004B08C90700D05B1C018808EA8323194329
:1040B00002E0018841F40041018008E0B4F85010AA
:1040C0000819297800EB0110298AA0F80C14E86976
:1040D000C0B3297834F82100430401D5430605D440
:1040E00000E046E044F2400318424ED134F821008B
:1040F000104048F2C002104324F8210045E0A969AD
:104100002869814202D9091AA96102E00846C5F866
:10411000189013BBB4F850102A78214401EB021117
:10412000B1F80424C2F30902A1F8042401F2044105
:104130003E2808D94209C30600D1521E0B8847EA1F
:10414000822208E021E078B14208C30700D0521C67
:104150000B8808EA822213430B80697800293FF418
:104160002EAF012909D010E00A8842F400420A80EB
:10417000F3E700287FF443AF3DE7B4F8502011196E
:104180002A7801EB0211A1F80C04297834F82100F7
:104190004BF68F72104080F4405040EA0A0024F839
:1041A00021000020A8E50021A0F844104FF43F4171
:1041B000A0F84010002070470148FDF795B90000B5
:1041C00060150020B0F844007047000010B500EB07
:1041D00042005C0800F5806009D000BF30F8042B75
:1041E00001F8012B120A01F8012B641EF6D1DA073F
:1041F00001D00088087010BD0020704711B98021DF
:10420000A0F84C100020704710B55B1C00EB42007A
:104210005B0800F5806009D011F8012B11F8014B03
:1042200042EA042220F8042B5B1EF5D110BDFEE704
:10423000490050EAC12018BF04204A0D18BF40F0C1
:10424000010040F2FF72B2EB515F08BF40F0020084
:10425000012808BF052070470907090E002804DB64
:1042600000F1E02080F80014704700F00F0000F12A
:10427000E02080F8141D70472DE9F74F144694B0E4
:104280000021C4E902111599079121F00045C9499F
:104290008D4206DC1599C4E9000117B00020BDE885
:1042A000F08FC549DFF814A3A9423CDD0799C44E3D
:1042B0000029C44FC44A1599534619DD00F06AFF1E
:1042C000554506D0C14AC24B00F064FFC4E9000165
:1042D0000AE04FF0D352BE4B00F05CFF32463B4643
:1042E00000F058FFC4E9000117B00120BDE8F08FCD
:1042F00000F0E4FB554506D0B44AB54B00F0DEFBB8
:10430000C4E900010AE04FF0D352B14B00F0D6FBF4
:1043100032463B4600F0D2FBC4E9000117B04FF033
:10432000FF30BDE8F08FAB49A942159978DB21F049
:10433000004183468846A84AA84B00F021FE00228F
:10434000A74B00F0BBFB00F0C1FD099000F0EDFDB4
:1043500006460F469C4A534600F012FE43465A4614
:1043600000F00CFF80468A46984A994B3046394601
:1043700000F006FE2A0D01250B924246534600F03E
:10438000FDFE032DC4E9000139D00B98C1F30A5199
:10439000401A05EB45111139814230DA9148C34684
:1043A000784400EB0510CDF80CA00C90D0E9002368
:1043B0003046394600F0E4FD02460B460491069073
:1043C0005846039900F0E6FE80468A4602460B46B0
:1043D0005846039900F0DEFE049B069A00F0DAFED0
:1043E00083460C9803913946D0E90223304600F009
:1043F000C7FD5A46039B00F0CDFE6D1CBDE7079834
:104400000028A2BF099817B0BDE8F08F616881F05D
:1044100000416160099817B04042BDE8F08FFFE7A6
:1044200084461598C1F31301C0F30A50A0F2F53089
:104430004FEA601800F01F06C6F12000139000201C
:104440000690079041F4801E05206D4676B1664ABD
:1044500008EB00017A4452F8213002EB8101B340AD
:104460004A68139922FA01F1194305E05F4908EB04
:104470000002794451F82210A1FB0E27A1FB0C1376
:104480001A449A4234BF0123002303EB070A05EBC9
:104490008003D3E901B70F448F4234BF01210021CB
:1044A00093448B4411B1934502D903E0934501D263
:1044B000012100E00021C3E901B7514445F8201073
:1044C000011EA0F10100C1DC0298059F00F100501F
:1044D000800F12900298DDE90356800000F025FD60
:1044E000834628460D9100F037FD6FF01D0201F064
:1044F00050FACDE90E01304600F02EFD6FF03D027E
:1045000001F047FA80468A46384600F025FD6FF0F4
:104510005D0201F03EFA074642465346119100F013
:10452000CDFADDE90E2300F0C9FA5A460D9B00F0E2
:10453000C5FA00250E465A4628460D9B00F02AFE75
:10454000DDE90E2300F026FE4246534600F022FE2F
:104550003A46119B00F012FEDFF898A0244A534619
:1045600000F00EFD07468846234A244B3146284674
:1045700000F006FD3A46434600F0A0FA074688469A
:104580004FF0A84253463146284600F0F9FC3A461F
:10459000434600F093FA159A12F0004F04D0129A95
:1045A00081F0004152421292C4E90001129817B002
:1045B000BDE8F08FFB21E93F7CD90240FB21F93FA8
:1045C0007370032E8A19A33B000040543163621AB2
:1045D00061B4D03DFB21394183C8C96D305FE43FF0
:1045E0000000E03F1C170000981600007A1600003B
:1045F000182D4454FB21F93D3326A611460B113CDE
:104600002DE9FF4D21F0004807460C46B8F1795FCF
:1046100008DA00F05BFC002801BF0020324904B03A
:10462000BDE8F08D3A4623461046194600F0A8FC36
:10463000054602462D480E460B460621784400F0FA
:104640005DF82A46334600F09BFCDDE902238246F2
:104650008B463846214600F093FC04460F465246EE
:104660005B462846314600F08BFC22463B4600F074
:1046700091FD07468A464FF0FF322846314601F049
:1046800088F91B4A90450ADA3A46534600F082FD03
:1046900004B00022BDE8F04D134B00F06FBD154A89
:1046A0004245A8BFA8F500154FF00004B8BF124D51
:1046B00022462B4600F06EFD0646884622462B46D3
:1046C0000020094900F066FD04460D463A4653466F
:1046D0003046414600F05EFD04B022462B46BDE860
:1046E000F04D00F04BBD00000000F03F5014000002
:1046F0003333D33F0000E93F0000D23F2DE9F041C2
:104700004F1E00EBC7010446D1E9000115461E46C5
:1047100037F006020DD02A46334600F031FC7F1EEA
:1047200004EBC703D3E9002300F0C8F937F0060211
:10473000F1D1022F25D0042F13D0062F18BFBDE8CA
:10474000F0812A46334600F01BFCD4E90A2300F02E
:10475000B5F92A46334600F013FCD4E9082300F0EB
:10476000ADF92A46334600F00BFCD4E9062300F0ED
:10477000A5F92A46334600F003FCD4E9042300F0EF
:104780009DF92A46334600F0FBFBD4E9022300F0F2
:1047900095F92A46334600F0F3FBD4E90023BDE83F
:1047A000F04100F08BB900002DE9FF4D054621F0E6
:1047B000004084B00C46B0F1795F0BDA2846FFF771
:1047C00037FD042808BF00F06FF8284608B02146DE
:1047D000BDE8F08D2A460B46104600F0D1FB064698
:1047E0000F462A46234600F0CBFB804626488A46E1
:1047F00032463B4605217844FFF780FF83461098F8
:10480000029160B3214A224B4046514600F0B8FB6A
:10481000CDE900015A4640465146029B00F0B0FBEC
:1048200082468846DDE906014FF0FF3201F0B1F81B
:104830005246434600F0AEFC32463B4600F0A0FB39
:10484000DDE9062300F0A6FCDDE9002300F0A2FC70
:1048500008B02A462346BDE8F04D00F08FBC0B4659
:104860005A463046394600F08BFB084A084B00F0A8
:1048700025F94246534600F083FB08B02A462346FA
:10488000BDE8F04D00F01AB98E130000495555559A
:104890005555C5BF012201F07CB8002213461046D1
:1048A000114600F0BBB90000024A0020110701F0D8
:1048B00070B8000001FDFFFF08B5FCF757FAFEF7DE
:1048C0001BF83948816941F020018161816901F05B
:1048D00020010091816941F004018161816901F049
:1048E00004010091416941F00101416140690022E8
:1048F00000F00100009011460B20FCF795FA0B2008
:10490000FCF784FA002211461020FCF78DFA1020E3
:10491000FCF77CFAFDF7CAFCFDF70EFDFDF742FD42
:10492000FF224FF47A710020FDF73EFF00211F485F
:10493000FDF736FC002201211D20FCF775FA1D2031
:10494000FCF764FA1948FDF779FA194CAA200025FA
:10495000207055206070A570C820E0701348FDF7E6
:1049600045FAA4F51671C82201F57C70FBF76AFFC1
:10497000104EA4F516774FF00D0830780028FCD0C3
:10498000357004215FF0000037F81020401C120938
:104990006254491CC828F7DB04F80180CD21044883
:1049A000FBF7B4FDE9E7000000100240AC05002071
:1049B000E40300200000002000B5254B21F0004258
:1049C00087B09A4203DC0022134600922BE0214B71
:1049D0009A4208D140B94FF00100FBF744FCFFF7C1
:1049E0005CFF07B000BD03DBFFF754FF07B000BD5D
:1049F00002AAFFF741FC10F003014FF001000DD0B7
:104A0000012914D002291AD00DF1080C9CE80F00DE
:104A1000FFF7F6FD07B081F0004100BD0DF1080C75
:104A200000909CE80F00FFF7BFFE07B000BD0DF13E
:104A3000080C9CE80F00FFF7E3FD07B000BD0DF187
:104A4000080C00909CE80F00FFF7AEFEE2E70000C4
:104A5000FB21E93F0000F07F21F00042A2F160520B
:104A6000B2F5801F01F0004328BFD2F17F6C0BD953
:104A70005FEA001C43EAC20242EB507018BF704765
:104A800028BF20F001007047B2F5801FBCBF184658
:104A900070474FEA410C1CF5001F02D2084600F097
:104AA000CCBE70B500F016FB00000089FFF7F6BF22
:104AB0004FF00040A0F580007047000010B591EA6B
:104AC000030F48BF83F0004300F16C83841A71EB3D
:104AD000030C05D2121943EB0C03001B61EB0C0114
:104AE000DFF824E14FEA1154A4EB135C1EEA430FF4
:104AF00018BF9EEA445F73D023EA0E03DCF1200E58
:104B000021EA045143F4801332D322FA0CFE10EB55
:104B10000E0023FA0CFE41EB0E01CCF1200E03FA3D
:104B20000EFE10EB0E0051F10001B1F5801FCCF12B
:104B3000200E32D201EB045112FA0EF2BDE8104001
:104B400058BF7047401C38BF5FEA420218BF704729
:104B5000002814BF20F0010041F100014FEA410399
:104B600013F5001F38BF7047A1F1C04100F000BB32
:104B7000012A43EB0302ACF1200CDCF11F0E32BF23
:104B80004FF0000E23FA0CF310EB030041EB04513D
:104B9000B4EB115FD0D0A1EB045101F580114908AD
:104BA0005FEA300001EB04510ED350F1000038BF32
:104BB00012FA0EFE08D1BDE81040C9E7401C38BF0C
:104BC0005FEA4202CAD1C3E7BDE810404FEA4103A1
:104BD00013F5001F38BF7047A1F1C04100F0C8BAFB
:104BE0009EEA445F08D011EA5E0FBDE8104004BFA2
:104BF00001F0004100207047BDE8104070B500F0A2
:104C000069FA00BF64FBBE3E0000E0FF02494FF0BE
:104C1000000000F08CBE00BF0000F87F2DE9C0410D
:104C200030B4DFF8A0C23CEA111418BF3CEA1314F8
:104C300000F0EC8081EA03051CEA111444EAD57403
:104C400018BF1CEA131500F0C780A4EB05044FF051
:104C5000004545EAC12145EAC32341EA505143EAF0
:104C6000525304F17F74994204F500344FEAC02096
:104C70004FEAC22208BF904200F09C804FEA1365C1
:104C80000FF24016765D4FEA134506FB05F7C7F1B4
:104C9000807706FB07F74FEAD737A7FB0368764212
:104CA000C8F58038A7FB06CE38BFA8F1010807FB7E
:104CB00008E64FF0000EA6FB028CE6FB03CEDCF10B
:104CC000000CCEF1004E38BFAEF1010EA6FB0C5821
:104CD0004FF000074FF00005E6FB0E87A1FB08C66A
:104CE000A0FB07CE16EB0E0645F10005E1FB0765BC
:104CF00015F1E04E7EBFA4F580345FEA46066D41B3
:104D000016F1800745F100054FEA17274FEA0666BE
:104D100047EA0567A6F1DE46B6F1805F4FEA152542
:104D20001FD9384624F0010C05EBC471BCF1FE6FAD
:104D300001EB0C1102D8F0BCBDE8008124425CBF3D
:104D400001F5801E9EEAC47F02D4F0BCBDE800815C
:104D5000244238D4F0BCA1F1C041BDE8004100F0CC
:104D600007BA4FEAD22242EA43524FEAD323A7FBC3
:104D700002864FEAD02040EA415007FB03661EEA54
:104D80000E0F4FEAD12105FB026658BFA6EB005675
:104D9000B6EB00564FEA520E4EEAC37E18EB0E0EEB
:104DA00056EB530EBDD518EB02085E417F1C55F142
:104DB0000005B6E74FF480154FF000074FF00006EE
:104DC0004FF00008ADE7F0BC4FF0000001F1C0412A
:104DD00001F00041BDE8008111EA0C1F0CEA131537
:104DE00000D00CE013EA0C1F00F025804FF000000B
:104DF000F0BC81EA030101F00041BDE80081F0BC94
:104E0000BDE8004181EA030100F0B2B9F0BCBDE8A1
:104E1000004170B500F05EF9097EFC3E00F007B875
:104E200081EA03014FF0000001F00041704781EA80
:104E3000030100F09DB9F0BCBDE800414FF0000057
:104E400021497047FFFDFBF9F7F5F4F2F0EEEDEBC9
:104E5000E9E8E6E4E3E1E0DEDDDBDAD8D7D5D4D378
:104E6000D1D0CFCDCCCBCAC8C7C6C5C4C2C1C0BFC4
:104E7000BEBDBCBBBAB9B8B7B6B5B4B3B2B1B0AFCA
:104E8000AEADACABAAA9A8A8A7A6A5A4A3A3A2A1AE
:104E9000A09F9F9E9D9C9C9B9A9999989797969569
:104EA00095949393929191908F8F8E8E8D8C8C8B05
:104EB0008B8A89898888878786858584848383828D
:104EC000828181800000FF070000F87F4FEA4103E4
:104ED0004FEA5353A3F58063D3F11E03C8BFD3F148
:104EE000210C0CDD4FF0004242EAC12242EA50524E
:104EF00032FA03FC8CEAE17CACEBE1707047102BDA
:104F0000C4BF0020704703F5787CBCF1FF3F04D09C
:104F10006FF0004282EA2100704770B500F0DAF8C5
:104F20004992248000207047F2E710F0004248BF09
:104F30004042B0FA80F310FA03F10AD0C3F11D0326
:104F400003F580634FEA415002EB035202EBD1219B
:104F500070474FF000007047B0FA80F310FA03F189
:104F60000AD0C3F11D0303F580634FEA41504FEAB5
:104F7000035202EBD12170474FF000007047000050
:104F8000DFF848C170B51CEA111E1EBF1CEA1315DC
:104F90009EEA0C0F95EA0C0F00F06F8081EA030483
:104FA00023EA4C134EEAD47E21EA4C1141F48011DD
:104FB00043F48013AE44A1FB024CA0FB0365AEF1A9
:104FC0007F7E361955EB0C05A1FB034C4CF1000319
:104FD000A0FB021C16EB0C06654153F100030942CD
:104FE00018BF46F0010613F4007F0BD14FEA0331DE
:104FF0004FEA0530340341EA155140EA16506FF08C
:1050000003020AE04FEAC3214FEAC520F40241EA55
:10501000555140EA56506FF0020202EB2E4201EB6E
:10502000025585EACE710AD05FEA440C18BF24F01D
:10503000004450F1000041F1000120EAD47040F238
:10504000FE7C624500D270BDA84214BF4FF0804480
:105050004FF04044002E08BF0024BEF1806FA8BF6F
:10506000A1F1C041BDE8704080F282804FF00000A5
:1050700001F1C04101F0004170479EEA0C0F0CEABB
:10508000131518BF95EA0C0F06D04FF0000081EA07
:10509000030E0EF0004170BD00F01CF88900013EC7
:1050A00000F007B800F009B84FEA430C5FEA5C5C17
:1050B00008D081EA030100F05BB84FEA410C5FEAD7
:1050C0005C5CF6D14FF00000014970470000FF071B
:1050D0000000F87F0EF1020E2EF0030E5EF8046B56
:1050E000364205D4012A43EB030515F5001F12D8FB
:1050F000012841EB010C1CF5001F0CD80ED14FEA22
:10510000D17C15F5001F0CEB4C0C0CF1020C08BF08
:105110004CEBD37C04E04FF0080C01E04FEAD37C69
:105120000CEB4C0526FA05F606F00706B6F1040C62
:1051300006D20EEB860CBDE870404CF0010C6047C7
:10514000DFE80CF0090B02024FF000414FF00000C5
:10515000A1F5002170BD19461046012851EB01044C
:1051600018BFD4F5001484BF002001F0004170BDC9
:105170000808A0F500114FEA3101704791EA030FCA
:1051800010B581F000413FF5A1AC83F0004300F081
:1051900009B8000010B591EA030F48BF83F000433F
:1051A0003FF594AC841A71EB030C07D212198CF002
:1051B000004C43EB0C03001B61EB0C01DFF8A4E196
:1051C0004FEA1154A4EB135C1EEA430F18BF9EEA8A
:1051D000445F00F0B08023EA6E03524221EA04519A
:1051E000C3EB6E0338BF5B1EDCF1200E25D322FA21
:1051F0000CFE10EB0E0043FA0CFE41EB0E01CCF15D
:10520000200E03FA0EFE10EB0E0051F10001CCF15E
:10521000200E29D412FA0EF201EB0451BDE8104021
:1052200058BF7047401C1CBFB2F1004F70470028A8
:105230000CBF491C20F00100704712EB020E43EB3B
:10524000030218BF4FF0010E4EEA4202ACF1200CEF
:10525000DCF11E0E54D943FA0CFE10EB0E0051F196
:10526000FF31CCF11E0ED5D50EF1010E12FA0EFE55
:10527000404141EB010101EB445C5FEA5C5C10D909
:1052800010EBDE7001EB045138BFBEF1004FBDE8FA
:10529000104018BF704700280CBF491C20F00100C7
:1052A000704730D24FEAD42C11F5001124F4006479
:1052B0001BD0B1FA81F20B3AA41AA41ED2F120033A
:1052C000914030FA03F31943904001EBCC71002C6C
:1052D00001EB0451BDE81040A8BF704701F1C04187
:1052E0004FF0000001F000417047B0FA80F310FA6F
:1052F00003F100D110BDE41A173C4805C90AE4E7E0
:1053000001EB045110BD491001EB0451BDE8104000
:105310004FEA300002E04FF0000170474A0008BF3A
:105320000042F8D0B2F5001F28BF704701F00041DD
:105330004FF0000070479EEA445F07D011EA5E0F0D
:10534000BDE8104004BF002100207047BDE81040B8
:1053500070B5FFF7BFFE00BF40DFF63E83F00041AF
:10536000104670470000E0FF43004FEAD30C4FEABD
:105370003C0C43401FBF40070CF1605113F0FE4F3F
:1053800070471CF0006F03D100200CF00041704703
:105390000CF0004343EA507010B540EACC0000F036
:1053A00006FA00BF000000924FEA0001FFF7E0BEDE
:1053B0004FF000414FF00000A1F5002170470000C0
:1053C00090EA010F48BF81F0004100F14282421A89
:1053D0003CBF801A89184FEAD0524FF07F4C1CEA2C
:1053E000410FA2EBD15318BF9CEA026F00F03B8043
:1053F0004FF0004C4CEA00204CEA012121FA03FC5A
:1054000010EB0C0C1ED202F1FF325FEA1C2040EBC5
:10541000C25038BF70471CF07F0F4FEA400C18BFD6
:10542000BCF17F4F38BF7047C3F12003994008BFDC
:1054300020F00100BCF17F4F38BF7047A0F1C040A1
:1054400000F0FBB94FEA3C00000A40EBC25028BF15
:105450001CF0FF0F4FEA400CE6D018BFBCF17F4FA5
:1054600038BF7047EAE79CEA026F05D010EA5C0F8C
:1054700008BF00F00040704710B500F098F900BF79
:1054800064FBBE3E014800F052BA00BF0000C07F7E
:105490004FF47F0C1CEAD0121EBF1CEAD11392EA13
:1054A0000C0F93EA0C0F00F0858090EA010F48BFC3
:1054B00042F4807240F4000C41F400002CF07F4173
:1054C00020F07F4000B58142A2EB03020FF2081CDE
:1054D000ACEB504EC0F100009EF800E04FEA4E0EDB
:1054E00000FB0EFC38BF49004FEA2C1C02F5FA0203
:1054F0000CFB0EF34FEACE1E4FEA112C4FEAC121EE
:105500000EEB635E42EB22420EFB0CFC4FEA1C5397
:1055100000FB03114FEA112C4FEA01310EFB0CFC8A
:105520004FEADC4C00FB0C11C14228BF09184CEBC0
:1055300003335DF804EB10EB410143EBC250B2F5CD
:105540007C0F38BF704729D512F0F00F1CBF00F157
:10555000C04000F0004070470081828384858687C8
:1055600088898B8C8D8E8F919293959697999A9C22
:105570009D9FA0A2A3A5A7A8AAACAEB0B2B3B5B791
:10558000B9BCBEC0C2C5C7C9CCCED1D4D7D9DCDF67
:10559000E2E6E9ECF0F3F7FAFE0000004FEA400C17
:1055A0000CF1807CBCF17E4F28BF7047B0F1C04049
:1055B00000F043B990EA010F0CEAD11348BF42F45E
:1055C0008072624538BF634507D213F47F0F16D04F
:1055D00080EA010000F00040704710B500F0E7F8E5
:1055E000097EFC3E00F005B880EA010000F00040B2
:1055F000704780EA010000F0004000F01EB912F48C
:105600007F0F04BF0248704780EA010000F015B91F
:105610000000C07FC10DD1F19E0206DB4FEA0023DE
:1056200043F0004323FA02F07047004207D54FEAE7
:105630004001B1F1FE4F02D24FF00000704710B5AB
:1056400000F0B5F849922480002070476FEA2000EE
:105650007047000010F0004148BF4042B0FA80F3AC
:1056600010FA03F2C3F19D030BD051EAC35101EBD1
:105670001220530638BF704700F1010008BF20F028
:1056800001007047B0FA80F310FA03F2C3F19D03F2
:105690000AD0D90501EB1220530638BF704700F13C
:1056A000010008BF20F00100704700004FF47F0C9C
:1056B0001CEAD0121EBF1CEAD11392EA0C0F93EA27
:1056C0000C0F00F0478090EA010F48BF42F480724F
:1056D0004FF0004C4CEA00204CEA012102EB03029F
:1056E000A0FB0113A2F50002002918BF43F001033B
:1056F0005B0028BF4FEA330342EB22425FEA132CE0
:105700004CEBC2502EBFBCEB436FB2F57C0F704721
:105710004FEA036CBCF1004F08BF20F00100B2F566
:105720007C0F38BF70470BD582F0FF0212F5803F27
:10573000C8BF704700F1C040D8BF00F000407047BC
:1057400000F5000C5FEA4C0C48BF7047B0F1C04058
:1057500000F073B890EA010F0CEAD11348BF42F48D
:105760008072624538BF634504D280EA010000F0D0
:105770000040704710B500F01AF800BF8900013EE4
:1057800000F007B800F009B85FEA410C5FEA1C6C52
:1057900008D080EA010000F050B85FEA400C5FEAF0
:1057A0001C6CF6D14FF00040A0F5800070470EF160
:1057B000020E2EF0030E5EF8044B244204D44FEA8E
:1057C0004102B2F17F4F11D84FEA4003B3F17F4F4E
:1057D0000CD80ED14FEAD07CB2F17F4F0CEB4C0CC1
:1057E0000CF1020C08BF4CEBD17C04E04FF0080C2C
:1057F00001E04FEAD17C0CEB4C0324FA03F404F0F3
:105800000704B4F1040C06D20EEB840CBDE8104082
:105810004CF0010C6047DFE80CF0070802024FF083
:105820000040A0F5800010BD0846420018BFD2F12C
:10583000807288BF00F0004010BDFF2141EAD050C7
:10584000C005704790EA010F48BF81F000413FF565
:10585000BEAD421A04D882F00042A0EB020011440F
:105860004FEAD0524FF07F4C1CEA410FA2EBD153CC
:1058700018BF9CEA026F4AD04FF0004C4CEA00205F
:105880004CEA012121FA03FCB0EB0C0C0FD412F00E
:10589000FE0F36D05FEA4C001DD5001240EBC2501F
:1058A00038BF70471CF03F0F18BF70470BE0A2F1E4
:1058B00001025FEA1C2040EBC25038BF70471CF069
:1058C0007F0F18BF7047C3F12003994014BF401EDB
:1058D00020F00100704780084FEA122308BF70478C
:1058E000B0FA80FCA2EB0C02CCF1280C60FA0CF0B0
:1058F00093EA122F04BF00EBC25070474FEAC37007
:105900007047130A5FEADC1008BF7047F6E79CEAAD
:10591000026F04D010EA5C0F08BF0020704710B57A
:10592000FFF745FF40DFF63E81F0004070470CF086
:105930000F03092B08BF082000F07F800A2B0BD033
:10594000082B18BF704708BF1CF0400F0AD04FF05B
:1059500000004FF0000170471CF0400F18BF4FF0DF
:10596000004070471CF0100F08D020F0704300F08A
:105970007F4242EAD3014FEA4370704700F0604033
:1059800021F07F4242EA000201F07F4040EA72705B
:1059900070474FF0FF0C4CF4E06C1CEA11531CBF35
:1059A0009CEA030C9445C2BFDA4201EB02517047F6
:1059B000002B0DD0BCF1000F0FD0002A01F00041E8
:1059C000A4BF41F0E04141F07F614FF0000070471B
:1059D00001F000414FF00000704750EA01334FF0F2
:1059E0009B0C18BF4CF0806C7FF410A970474FF0EF
:1059F000FF0212EAD0521CBF92F0FF038B42C2BFDB
:105A0000D14200EBC1507047002A0AD0002B0BD0C6
:105A1000002900F00040A4BF40F0FE4040F4000028
:105A2000704700F00040704743024FF00B0C18BF66
:105A30004CF0806C7FF426AD70471CF4801F11D0B1
:105A40001CF4E02F03D06FEACC31490070474FF0CF
:105A50004050EFF3008222F0704242EA000282F3EB
:105A6000008870474FF000007047010202030405F0
:105A7000060708090A0B0C0D0E0F1010000000009D
:105A800000000000010203040607080900000000EE
:105A90004C5555555555A53F7751C1166CC156BF4C
:105AA0009015CB19A001FA3EAD529C804F7E92BE5C
:105AB000C4B1B4BD9EEE213ED43888BEE9FAA8BD7B
:105AC00000004054FB21F93F3163621A61B4D03DBC
:105AD0000000601A61B4D03D7370032E8A19A33B95
